:020000040800F2
:10000000680700200901000829130008731200087E
:1000100025130008A7010008D51C000800000000F7
:10002000000000000000000000000000951B000818
:10003000AB01000800000000E51A0008ED1B0008F5
:100040002301000823010008230100082301000800
:1000500023010008230100082301000823010008F0
:1000600023010008230100082301000823010008E0
:1000700023010008230100082301000823010008D0
:1000800023010008230100082301000823010008C0
:1000900023010008230100082301000823010008B0
:1000A00000000000230100082301000823010008CC
:1000B0002301000823010008230100082301000890
:1000C0002301000823010008230100082301000880
:1000D0002301000823010008230100082301000870
:1000E0002301000823010008230100082301000860
:1000F00023010008DFF80CD000F018F80048004792
:10010000F91C000868070020064880470648004799
:10011000FEE7FEE7FEE7FEE7FEE7FEE7FEE7FEE7B7
:10012000FEE7FEE7711C0008F5000008064C074DCD
:1001300006E0E06840F0010394E8070098471034B7
:10014000AC42F6D3FFF7DAFF203D0008403D00083F
:1001500070B58C1810F8015B15F0070301D110F889
:10016000013B2A1106D110F8012B03E010F8016BB6
:1001700001F8016B5B1EF9D12B0705D40023521E39
:100180000DD401F8013BFAE710F8013BCB1A921CA1
:1001900003E013F8015B01F8015B521EF9D5A1429F
:1001A000D8D3002070BD00BFFEE7704731B50024F2
:1001B00000F0F8F8044600BF00F0F4F8001B0099C6
:1001C0008842F9D338BD000078B5034600220024E8
:1001D0000020CAE0012696400D6805EA0604002CBE
:1001E00071D04D68022D02D04D68122D13D1D60862
:1001F00003F1200555F826005507EE0E0F25B540F2
:10020000A8435607F60E0D69B5402843D60803F1FA
:10021000200545F82600186856000325B540A84378
:100220000D7905F003055600B540284318604D6868
:10023000012D08D04D68022D05D04D68112D02D03A
:100240004D68122D13D1986856000325B540A84378
:100250005600CD68B5402843986058680125954000
:10026000A8430D79C5F30015954028435860D86818
:1002700056000325B540A84356008D68B540284375
:10028000D8604D6805F08055B5F1805F6CD100BF36
:10029000394D2D6845F00105374E356035462D68DE
:1002A00005F00105009500BF00BF344D960855F8D4
:1002B000260095072E0F0F25B540A843304DAB42C1
:1002C00002D1002515E04FE02E4DAB4201D10125B2
:1002D0000FE02D4DAB4201D102250AE02B4DAB4280
:1002E00001D1032505E02A4DAB4201D1042500E0F0
:1002F00005259607360FB5402843204D960845F84A
:100300002600244D2868A0434D6805F48035B5F5D6
:10031000803F00D120431F4D28602D1D2868A04339
:100320004D6805F40035B5F5003F00D12043194D67
:100330002D1D28602D1D2868A0434D6805F48015EB
:10034000B5F5801F00D12043124D083528602D1DC2
:100350002868A0434D6805F40015B5F5001F00D1CD
:1003600020430C4D0C352860521C0D68D540002DE3
:100370007FF430AF78BD0000203802400800014013
:10038000000002400004024000080240000C02404D
:1003900000100240000401400AB1816101E00B0439
:1003A00083617047014800687047000084010020A5
:1003B00002480068401C0149086070478401002021
:1003C00010B5032000F05CF8002000F005F800F004
:1003D00017F8002010BD000070B5044607480068FB
:1003E0004FF47A71B0FBF1F5284600F024FF0022AB
:1003F0002146501E00F005F8002070BD800100204D
:1004000070472DE9F05F80460D461646002700F044
:100410008DFF074639462A46334601F00700C0F1F2
:10042000070ABAF1040F02D94FF0040A01E0C0F143
:10043000070AD14600F1040ABAF1070F02D24FF0C1
:10044000000A01E0A0F1030AD4464FF0010A0AFABB
:1004500009FAAAF1010A0AEA020A0AFA0CFA4FF0AA
:10046000010B0BFA0CFBABF1010B0BEA030B4AEA95
:100470000B042146404600F061FFBDE8F09F0000FC
:1004800000BF00F00702064B19684FF6FF03194042
:10049000044B0B4343EA0221014B196000BF704734
:1004A0000CED00E00000FA0570B504460D4600268C
:1004B000B348006800F00100A84218D200BF012D27
:1004C00005D1AF48006840F00400AD490860AC4871
:1004D000006820F001002843A949086000BF0846D1
:1004E000006800F00100A84201D0012070BD207812
:1004F00000F00200022807D1A248006820F0F000B6
:10050000A16808439F490860207800F00100002896
:100510007BD06068022821D12020010391FAA1F14B
:10052000B1FA81F108430121B1EB601F03D1954875
:100530000838006802E093482C30006820210A0344
:1005400092FAA2F2B2FA82F2114301F01F020121E3
:100550009140084000286CD10120C7E7606803285B
:1005600020D12020010591FAA1F1B1FA81F10843CF
:100570000121B1EB601F03D182480838006802E016
:1005800080482C30006820210A0592FAA2F2B2FAC3
:1005900082F2114301F01F02012191400840A8BBE3
:1005A0000120A3E76068012820D12020022191FAD0
:1005B000A1F1B1FA81F108430121B1EB601F03D130
:1005C00070480838006802E06E482C30006820212E
:1005D000022292FAA2F2B2FA82F2114301F01F0251
:1005E00001219140084088B901207FE720200101C6
:1005F00091FAA1F1B1FA81F108430121B1EB601F39
:1006000005D160480838006804E069E011E05D4801
:100610002C30006820210A0192FAA2F2B2FA82F28A
:10062000114301F01F0201219140084008B9012047
:100630005CE75448006820F00300616808435149B2
:100640000860FFF7AFFE06466068022810D108E098
:10065000FFF7A8FE801B41F28831884201D90320B0
:1006600044E74848006800F00C000828F0D137E063
:100670006068032810D108E0FFF794FE801B41F268
:100680008831884201D9032030E73E48006800F0F5
:100690000C000C28F0D123E06068012810D108E09C
:1006A000FFF780FE801B41F28831884201D9032088
:1006B0001CE73448006800F00C000428F0D10FE07B
:1006C00008E0FFF76FFE801B41F28831884201D9B4
:1006D00003200BE72B48006800F00C000028F0D145
:1006E0002748006800F00100A84218D900BF012D7A
:1006F00005D12348006840F00400214908602048E3
:10070000006820F0010028431D49086000BF08462A
:10071000006800F00100A84201D00120E6E6207840
:1007200000F00400042807D11648006820F4E060B7
:10073000E168084313490860207800F008000828A1
:1007400008D11048006820F46050216940EAC100D7
:100750000C49086000F022F80A49096801F0F0012C
:10076000F02292FAA2F2B2FA82F2D140064A515C29
:10077000C840064908600020FFF72EFE0020B5E6BD
:10078000003C024008380240F51E000880010020AD
:10079000014800687047000080010020F0B500218A
:1007A00000230024002200250020254E316801F09E
:1007B0000C067EB3042E04D0082E04D00C2E2AD1B1
:1007C00003E020483AE0204838E001F470164FF486
:1007D000701797FAA7F7B7FA87F7FE401B4FBB5D74
:1007E00001F440064FF4400797FAA7F7B7FA87F7E6
:1007F000FE40741C124E366806F4803626B1124E46
:100800005E43B6FBF4F203E00E4E5E43B6FBF4F239
:10081000104613E000E000BF094E361F366806F4AC
:1008200060464FF4604797FAA7F7B7FA87F726FABA
:1008300007F56E1C0127B740F80300BF00BFF0BDED
:10084000083802400024F40000366E01EC1E000857
:10085000F8B504460025207800F00100002879D082
:10086000F748006800F00C0008280CD0F448006835
:1008700000F00C000C282BD1F148006800F4803007
:10088000B0F5803F24D12020010391FAA1F1B1FA03
:1008900081F108430121B1EB601F03D1E84808381A
:1008A000006802E0E6482C30006820210A0392FA32
:1008B000A2F2B2FA82F2114301F01F02012191402B
:1008C00008400028CBD06068002843D10120F8BD43
:1008D00000BF6068012808D1D9480838006840F492
:1008E0008030D749083908602DE0606868B9D4487D
:1008F0000838006820F48030D1490839086008467B
:10090000006820F4802008601DE0606805280DD193
:10091000CB480838006840F48020C949083908608D
:100920000846006840F4803008600CE0C44808388D
:10093000006820F48030C249083908600846006821
:1009400020F48020086000BF606860B3FFF72AFDD4
:10095000054607E052E0FFF725FD401B642801D95A
:100960000320B4E72020010391FAA1F1B1FA81F14B
:1009700008430121B1EB601F03D1B148083800687A
:1009800002E0AF482C30006820210A0392FAA2F25C
:10099000B2FA82F2114301F01F0201219140084096
:1009A0000028D8D02AE0FFF7FDFC054606E0FFF757
:1009B000F9FC401B642801D9032088E720200103AB
:1009C00091FAA1F1B1FA81F108430121B1EB601F65
:1009D00003D19B480838006802E099482C30006831
:1009E00020210A0392FAA2F2B2FA82F2114301F034
:1009F0001F020121914008400028D8D1207800F042
:100A00000200022845D18E48006800F00C0004283E
:100A10000AD08B48006800F00C000C283BD18848B5
:100A2000006800F48030A8BB2020022191FAA1F1D7
:100A3000B1FA81F108430121B1EB601F03D1804875
:100A40000838006802E07E482C300068202102222D
:100A500092FAA2F2B2FA82F2114301F01F020121CE
:100A60009140084020B1E068012801D001202EE724
:100A70007348001F006820F4F8504FF4F85292FABF
:100A8000A2F2B2FA82F22169914008436C49091F2F
:100A900008607DE0FFE7E068F0B3012090FAA0F184
:100AA000B1FA81F1674A42F82100FFF77BFC054665
:100AB00006E0FFF777FC401B022801D9032006E778
:100AC0002020022191FAA1F1B1FA81F1084301211C
:100AD000B1EB601F03D15A480838006802E058485B
:100AE0002C3000682021022292FAA2F2B2FA82F29D
:100AF000114301F01F020121914008400028D8D085
:100B00004F48001F006820F4F8504FF4F85292FA52
:100B1000A2F2B2FA82F200E006E0216991400843B5
:100B20004749091F086033E00020012191FAA1F133
:100B3000B1FA81F1434A42F82100FFF733FC054640
:100B400006E0FFF72FFC401B022801D90320BEE678
:100B50002020022191FAA1F1B1FA81F1084301218B
:100B6000B1EB601F03D136480838006802E0344812
:100B70002C3000682021022292FAA2F2B2FA82F20C
:100B8000114301F01F020121914008400028D8D1F3
:100B9000207800F01000102873D12948006800F078
:100BA0000C0000286ED12020010191FAA1F1B1FAC8
:100BB00081F108430121B1EB601F03D120480838BF
:100BC000006802E01E482C30006820210A0192FAD9
:100BD000A2F2B2FA82F2114301F01F020121914008
:100BE000084018B1A06908B9012070E61449091F2E
:100BF000206A096801F46041884225D9206A00F022
:100C000073FF08B1012062E60D48001F006820F460
:100C10006040216A08430A49091F086008460068C5
:100C200020F07F404FF07F4292FAA2F2B2FA82F2B5
:100C3000E169914008430249091F086023E0000070
:100C40000838024000004742FC48006820F4604039
:100C5000216A0843F94908600846006820F07F408F
:100C60004FF07F4292FAA2F2B2FA82F2E169914029
:100C70000843F2490860206A00F036FF18B10120ED
:100C800025E6A5E01FE04FF4604191FAA1F1B1FA29
:100C900081F1206AC840401C01218140C803E74916
:100CA000091D096801F0F001F02292FAA2F2B2FAED
:100CB00082F2D140E24A515CC840E249086000201B
:100CC000FFF78AFB84E0A069F0B30120010291FAEA
:100CD000A1F1B1FA81F1DC4A42F82100FFF762FB91
:100CE000054606E0FFF75EFB401B022801D9032002
:100CF000EDE52020010191FAA1F1B1FA81F108435B
:100D00000121B1EB601F03D1CC48001F006802E055
:100D1000CA483030006820210A0192FAA2F2B2FAE1
:100D200082F2114301F01F02012191400840002886
:100D3000D8D0C248006820F46040216A0843BF4907
:100D400008600846006800E00DE020F07F404FF0AA
:100D50007F4292FAA2F2B2FA82F2E169914008432C
:100D6000B649086034E000204FF4807191FAA1F197
:100D7000B1FA81F1B44A42F82100FFF713FB0546AE
:100D800006E0FFF70FFB401B022801D903209EE578
:100D90002020010191FAA1F1B1FA81F1084301216A
:100DA000B1EB601F03D1A548001F006802E0A34813
:100DB0003030006820210A0192FAA2F2B2FA82F2DF
:100DC000114301F01F020121914008400028D8D1B1
:100DD000207800F0080008286ED16069A8B30120CF
:100DE00090FAA0F1B1FA81F1974A02EB8101C1F8C2
:100DF0008006FFF7D7FA054606E0FFF7D3FA401B57
:100E0000022801D9032062E54020022191FAA1F1D4
:100E1000B1FA81F108430121B1EB601F03D187488A
:100E2000001F006802E0854830300068402102223F
:100E300092FAA2F2B2FA82F2114301F01F020121EA
:100E4000914008400028D8D036E0FFE7002101207B
:100E500090FAA0F0B0FA80F07B4A02EB8000C0F874
:100E60008016FFF79FFA054606E0FFF79BFA401B46
:100E7000022801D903202AE54020022191FAA1F19C
:100E8000B1FA81F108430121B1EB601F03D16B4836
:100E9000001F006802E069483030006840210222EB
:100EA00092FAA2F2B2FA82F2114301F01F0201217A
:100EB000914008400028D8D1207800F00400042890
:100EC00075D100265D482030006800F0805080B960
:100ED00000BF5A482030006840F080505749203108
:100EE00008600846006800F08050009000BF00BF16
:100EF00001265648006800F48070B0B95348006875
:100F000040F4807051490860FFF74CFA054606E04E
:100F1000FFF748FA401B642801D90320D7E44B4867
:100F2000006800F480700028F2D000BFA06801289B
:100F300008D142483030006840F480703F49303179
:100F400008602DE0A06868B93C483030006820F4A3
:100F500080703A49303108600846006820F48060AB
:100F600008601DE0A06805280DD1344830300068C5
:100F700040F480603149303108600846006840F430
:100F8000807008600CE02D483030006820F48070DC
:100F90002A49303108600846006820F48060086003
:100FA00000BFA06870B3FFF7FDF9054609E06AE0ED
:100FB000FFF7F8F9401B41F28831884201D903203C
:100FC00085E44020C10091FAA1F1B1FA81F1084312
:100FD0000121B1EB601F03D11848001F006802E037
:100FE0001648303000684021CA0092FAA2F2B2FAE4
:100FF00082F2114301F01F020121914008400028B4
:10100000D6D035E0FFF7CEF9054608E0FFF7CAF97C
:10101000401B41F28831884201D9032057E4402027
:10102000C10091FAA1F1B1FA81F108430121B1EBBC
:10103000601F0DD10148001F00680BE0043802401A
:10104000F51E0008800100200000474200700040AB
:101050006C4800684021CA0092FAA2F2B2FA82F209
:10106000114301F01F020121914008400028CDD119
:10107000012E07D163481038006820F08050614984
:101080001039086000BF606AF0B35E482C38006811
:1010900000F00C000C287AD0606A022879D1002078
:1010A0004FF0807191FAA1F1B1FA81F1564A42F8FC
:1010B0002100FFF777F9054606E0FFF773F9401BBB
:1010C000022801D9032002E42020010591FAA1F1B0
:1010D000B1FA81F108430121B1EB601F03D1494806
:1010E0003438006801E04748006820210A0592FA78
:1010F000A2F2B2FA82F2114301F01F0201219140E3
:1011000008400028D9D100E07AE0D4E90A01084378
:10111000216B08433B492C39096821F47D010843C0
:1011200038492C3908600120010691FAA1F1B1FA81
:1011300081F1354A42F82100FFF734F9054606E00F
:10114000FFF730F9401B022801D9032009E42020D1
:10115000010591FAA1F1B1FA81F108430121B1EB46
:10116000601F03D127483438006801E02548006833
:1011700020210A0592FAA2F2B2FA82F2114301F09A
:101180001F020121914008400028D9D038E035E005
:10119000FFE700214FF0807090FAA0F0B0FA80F0E5
:1011A000194A42F82010FFF7FDF8054606E0FFF760
:1011B000F9F8401B022801D9032058E4202001053A
:1011C00091FAA1F1B1FA81F108430121B1EB601F5D
:1011D00003D10C483438006801E00A480068202137
:1011E0000A0592FAA2F2B2FA82F2114301F01F024A
:1011F0000121914008400028D9D101E0012036E4C6
:10120000002034E43438024000004742042808D16A
:101210004FF0E021096941F004014FF0E022116133
:1012200007E04FF0E021096921F004014FF0E022CE
:1012300011617047704770B504462546681EB0F1CD
:10124000807F01D301200FE0681E4FF0E02148614C
:101250000F214FF0FF3000F071F800204FF0E02137
:10126000886107200861002070BD10B5FFF7E2FF1C
:1012700010BD00BFFEE7000010B5012202210C489E
:10128000FFF78AF8012211460948FFF785F800F0B8
:1012900041F8002202210648FFF77EF800F03AF8F4
:1012A000002201210248FFF777F800F033F810BD63
:1012B0000000024010B5002202210848FFF76CF838
:1012C000012211460548FFF767F800F023F80122D4
:1012D00002210248FFF760F810BD00000000024044
:1012E00010B5012202210A48FFF756F800F012F863
:1012F000012211460648FFF74FF800F00BF80022D4
:1013000001210348FFF748F800F004F810BD000081
:1013100000000240012000BF011EA0F10102D0B276
:10132000FAD1704700BFFEE770470000024800682E
:10133000C0F30220704700000CED00E010B500285B
:1013400007DA0A07140E054A00F00F031B1FD454D6
:1013500003E00A07130E024A135410BD18ED00E013
:1013600000E400E070B500240EE0002508E0002055
:1013700005EB4501074A02EB41010855681CC5B25F
:10138000402DF4DB601CC4B2062CEEDB00F008F943
:1013900070BD000088010020F0B514460B46CF1741
:1013A00001EB5777C7F3C702CF1701EB5777FF1051
:1013B000A1EBC707FEB20123B340DDB274B100EB6D
:1013C00040031A4F07EB43039B5C2B4300EB4007A2
:1013D000DFF858C00CEB4707BB5425E000EB400397
:1013E000124F07EB43039B5CDB4300EB4007DFF846
:1013F0003CC00CEB4707BB5400EB4003674607EBD0
:1014000043039B5C2B4300EB40070CEB4707BB54AB
:1014100000EB4003674607EB43039B5CDB4300EBB9
:1014200040070CEB4707BB54F0BD000088010020CB
:1014300000B587B000BF5248006840F00100504935
:1014400008600846006800F00100019000BF00BF7E
:1014500003200290112003900120049002200590A7
:1014600002A94848FEF7B0FE012203214548FEF7D5
:1014700093FF48F2040002900120039004900220A0
:10148000059002A93F48FEF79FFE012248F20401A1
:10149000C803FEF781FF002204213A48FEF77CFFD3
:1014A000C820FEF783FE012204213648FEF774FFB0
:1014B0000021AE2000F0FAFA0021084600F0F6FA0A
:1014C0000021122000F0F2FA0021402000F0EEFA94
:1014D0000021B02000F0EAFA0021812000F0E6FAB5
:1014E0000021FF2000F0E2FA0021A12000F0DEFA46
:1014F0000021A62000F0DAFA0021A82000F0D6FA98
:1015000000212F2000F0D2FA0021C82000F0CEFAEE
:101510000021D32000F0CAFA0021084600F0C6FAE4
:101520000021D52000F0C2FA0021802000F0BEFA90
:101530000021D92000F0BAFA0021212000F0B6FAEB
:101540000021DA2000F0B2FA0021122000F0AEFAF9
:101550000021DB2000F0AAFA0021402000F0A6FACA
:1015600000218D2000F0A2FA0021142000F09EFA44
:10157000FFF7F8FE0021AF2000F098FA07B000BD99
:101580001C3802400000024010B50246012000E075
:1015900050430B1EA1F10104E1B2F9D110BD0000CE
:1015A00070B500242DE004F1B001C8B2002100F0B4
:1015B0007DFA0021084600F079FA0021122000F09F
:1015C00075FAFFF759FE782000F0E6FAFFF788FE7B
:1015D000402000F0E1FAFFF783FE00250BE005EB69
:1015E0004501094A02EB4101085D00F0D5FAFFF719
:1015F00077FE681CC5B2402DF1DBFFF75BFE601C77
:10160000C4B2062CCFDB70BD8801002008B580462F
:10161000894692460026002753E04FB910233246F0
:1016200019464020CDF800A000F0ECF8701CC6B2BE
:10163000464526D14FF0000B1EE0012414E00025A2
:101640000EE004EB44001F4901EB4000415D601EC9
:1016500000EB40001B4A02EB40004155681CC5B23C
:10166000062DEEDB601CC4B2502CE8DBFFF798FFC0
:101670000BF1010000F0FF0B4FEA09105845DCDCCC
:101680000026781CC7B2102F00D10027012414E0D7
:1016900000250EE004EB44000A4901EB4000415DE7
:1016A000601E00EB4000074A02EB40004155681CF9
:1016B000C5B2062DEEDB601CC4B2502CE8DBFFF790
:1016C0006FFFAAE7880100202DE9FE4F07468846F4
:1016D00092461C460197CDF80080082C02D14FF0AD
:1016E00006091FE02046E31704EB5373DB10214685
:1016F0004FEAE47C04EB5C7C4FEAEC0CA4EBCC0CF2
:10170000BCF1000F02D04FF0010C01E04FF0000CD3
:101710006344224604EBD27C4FEA6C0C03FB0CF3CF
:1017200003F0FF09AAF12000C6B200255EE0082CF4
:1017300007D106EB46002F4901EB400010F805B039
:101740001DE00C2C07D106EB46002B4901EB800075
:1017500010F805B013E0102C05D1284800EB061056
:1017600010F805B00BE0182C07D106EBC600244991
:1017700001EB800010F805B001E0BDE8FE8F00200D
:1017800002901CE00BF0010028B1414638460C9A4B
:10179000FFF702FE09E00C9808B9012000E00020E4
:1017A000024641463846FFF7F7FD4FEA6B0B08F15A
:1017B000010000F0FF080298401CC0B2029002989D
:1017C0000828DFDB781CC7B2082C0BD004EBD471DF
:1017D0004A100199791A8A4204D1019F0098083071
:1017E000C0B20090DDF80080681CC5B24D459EDB9C
:1017F00000BFC2E70D1F000835210008A925000819
:10180000992B00082DE9FC4F0746884616461C46D2
:10181000BB46CDF804802046E21704EB5272D2108A
:101820002146E31704EB5373DB10A4EBC3030BB1A6
:10183000012300E000231A4462430092002554E093
:10184000102C05D12B4800EB461010F805A01BE02A
:10185000182C07D106EBC600274901EBC00010F891
:1018600005A011E0202C05D1244800EBC61010F88B
:1018700005A009E0402C05D1214800EB462010F8D6
:1018800005A001E0BDE8FC8F4FF000091CE00AF064
:10189000010028B1414638460B9AFFF77DFD09E06B
:1018A0000B9808B9012000E0002002464146384666
:1018B000FFF772FD4FEA6A0A08F1010000F0FF0825
:1018C00009F1010000F0FF09B9F1080FDFDB781C16
:1018D000C7B2A7EB0B00A04204D15F4601980830C5
:1018E000C0B20190DDF804806D1C00988542A7D33A
:1018F00000BFC7E7F5380008553A00089D3A0008D0
:101900001D3B00082DE9FF4F82B0064691461F4659
:10191000DDE90F4A4FF0000B082C01D14FF0020B0C
:10192000002530E0781B401EC1B20A20FFF72CFED4
:10193000B9FBF0F00A21B0FBF1F201FB1208B8F19B
:10194000000F0ED104EBD4710BEB610101FB0561BB
:10195000C8B223463022CDE900A40399FFF7B4FEB4
:101960000FE004EBD4710BEB610101FB0561C8B220
:1019700008F13001CAB22346CDE900A40399FFF76C
:10198000A3FE681CC5B2BD42CCDB06B0BDE8F08F3B
:101990002DE9FF4F05460E4617461C46DDF83890E8
:1019A0004FF0000A0095B3462046E21704EB52724E
:1019B000D2102146E31704EB5373DB10A4EBC303EF
:1019C0000BB1012300E000231A44D4B24FF0000809
:1019D00043E00020039039E00D9810F80A000290CF
:1019E0000AF1010A002001901DE0029800F00100B8
:1019F00028B14A4631462846FFF7CEFC0AE0B9F145
:101A0000000F01D1012000E00020024631462846A7
:101A1000FFF7C2FC029840100290701CC6B20198F9
:101A2000401CC0B2019001980828DEDB681CC5B2DA
:101A30000098281AB84204D1009D0BF1080000F06C
:101A4000FF0B5E460398401CC0B203900398B84257
:101A5000C2DB08F1010000F0FF08A045B9DBBDE8DA
:101A6000FF8F2DE9F84106460F4614461D46DDF866
:101A70001C8013E0CDF8008022782B463946304692
:101A8000FFF722FE082D02D1B01DC6B205E02846A0
:101A900005EBD07106EB6101CEB2641C20782028E2
:101AA00002DB20787E28E5DDBDE8F88170B50546CB
:101AB0000C46FFF7E1FB782000F06EF8FFF710FC12
:101AC0001CB1402000F068F802E0002000F064F84B
:101AD000FFF706FC284600F05FF8FFF701FCFFF770
:101AE000E9FB70BD7047000018B5024600230021D5
:101AF0002548006800F0F00050BB23481C30006807
:101B000000F0805020B12148006800F4C05318E074
:101B100000BF1D481C30006840F080501A4C1C3437
:101B200020602046006800F08050009000BF00BF99
:101B30001648006800F4C0532046006820F080502A
:101B40002060B3F5C05F03D1B2F5404F00D1012151
:101B500000BF012905D10E48006840F004000C4C7C
:101B600020600B48006820F001000843084C20600A
:101B700000BF2046006800F00100884201D001202B
:101B800018BD0020FCE7000008380240007000404B
:101B9000003C02407047000070B5044600251FE07D
:101BA00004F0800028B1012202210F48FEF7F4FB67
:101BB00004E0002202210C48FEF7EEFBFFF7AAFB2F
:101BC000012211460848FEF7E7FBFFF7A3FB0022BE
:101BD00001210548FEF7E0FB6006040E681CC5B253
:101BE000082DDDDB70BD00000000024010B5FEF7DF
:101BF000DFFBFFF73AFB10BD10B592B01B48006841
:101C000020F4C05040F4006018490860022005909C
:101C1000012008901020099002200E9000210F91C1
:101C200010914105119105A8FEF712FE0F200090BA
:101C30000320019000200290039004900121684647
:101C4000FEF732FCFEF7A4FD4FF47A71B0FBF1F41D
:101C50002046FFF7F0FA0420FFF7D8FA00221146D9
:101C6000501EFEF7CEFB12B010BD00000070004009
:101C70001448006840F48070124908601148083028
:101C80000068114908400F49083108600D48006894
:101C90000E4908400B4908600846006820F480207F
:101CA000086008480830006820F47D0005490831C4
:101CB00008600020091D08604FF0006004490860BA
:101CC00070470000003802400CC0FF88FEFFFEEEA7
:101CD00008ED00E000BFFEE702E008C8121F08C1DF
:101CE000002AFAD170477047002001E001C1121F9D
:101CF000002AFBD1704700001CB52024FEF760FBD2
:101D0000FFF77AFFFFF794FB0022A1026C48FEF771
:101D100043FBD3E001206B4930234022CDE9001082
:101D200000210846FFF734FEFFF73AFC4FF4FA7043
:101D3000FEF73CFAFFF716FB0120102300221146A4
:101D400000900820FFF75EFD0120102302460021CD
:101D500000901820FFF756FD0120102302220021D9
:101D600000902820FFF74EFD012010230322194682
:101D700000900020FFF746FD0120102304221946A1
:101D800000901846FFF73EFD01201023052219465A
:101D900000902020FFF736FD01201023062219466F
:101DA00000903020FFF72EFD0120102346A22021B5
:101DB00000900420FFF755FEFFF7F2FB4FF4FA7096
:101DC000FEF7F4F9FFF7CEFA0120102340A200211C
:101DD00000901846FFF745FE012010233EA2194649
:101DE00000900020FFF73DFE012010233CA220219F
:101DF00000900020FFF735FE0120102322461946EF
:101E000000903020FFF760FC601CC4B27E2C00DD27
:101E100020240120102103232246CDE90010202197
:101E20002820FFF76FFDFFF7BBFB4FF4FA70FEF7BA
:101E3000BDF9FFF797FA0120102300221146009008
:101E40001046FFF7DFFC012018230022102100902C
:101E50001046FFF7D7FC01202023002211460090F6
:101E60001820FFF7CFFCFFF79BFB4FF4FA70FEF74B
:101E70009DF9FFF777FA01200C231BA200210090A7
:101E80000846FFF7EEFD0120102317A20C21009059
:101E90000020FFF7E6FD0120182313A21A2100906D
:101EA0000020FFF7DEFDFFF77BFB4FF4FA70FEF733
:101EB0007DF9012204210B20FFF7A8FB2AE700008F
:101EC0000000024000000020323031382F30350051
:101ED000544558540000000041534349493A00001A
:101EE000434F44453A0000004142430003040608C2
:101EF0000C10182030000000000000000001020358
:101F000004060708090000000001020304000000A5
:101F10000000000000002F00000000070007000084
:101F2000147F147F1400242A7F2A1200626408138D
:101F30002300364955225000000503000000001C14
:101F4000224100000041221C000014083E08140039
:101F500008083E0808000000A06000000808080803
:101F600008000060600000002010080402003E51DC
:101F700049453E0000427F40000042615149460011
:101F80002141454B31001814127F1000274545456B
:101F900039003C4A494930000171090503003649BE
:101FA00049493600064949291E000036360000001E
:101FB00000563600000008142241000014141414C6
:101FC00014000041221408000201510906003249A0
:101FD00059513E007C1211127C007F49494936005C
:101FE0003E41414122007F4141221C007F49494935
:101FF00041007F09090901003E4149497A007F08F3
:1020000008087F0000417F4100002040413F01005F
:102010007F08142241007F40404040007F020C02B4
:102020007F007F0408107F003E4141413E007F0950
:10203000090906003E4151215E007F091929460029
:1020400046494949310001017F0101003F404040BC
:102050003F001F2040201F003F4038403F006314D6
:1020600008146300070870080700615149454300E0
:10207000007F41410000552A552A55000041417F0B
:102080000000040201020400404040404000000102
:10209000020400002054545478007F48444438001F
:1020A000384444442000384444487F003854545451
:1020B0001800087E0901020018A4A4A47C007F086F
:1020C0000404780000447D4000004080847D0000CE
:1020D0007F102844000000417F4000007C04180469
:1020E00078007C0804047800384444443800FC2418
:1020F0002424180018242418FC007C080404080078
:10210000485454542000043F444020003C404020A8
:102110007C001C2040201C003C4030403C004428F7
:10212000102844001CA0A0A07C004464544C44141B
:10213000141414141400000000000000000000003B
:10214000000000FC000000000002000000000C0283
:102150000C020000000000000090D0BCD0BC900039
:1021600003000300001824FE448C00030207020150
:10217000001824D8B04C80000300010201C038E4EC
:1021800038E000010202010202080600000000001F
:102190000000000000000000F8040200000001023E
:1021A00004000204F800000004020100009060F83E
:1021B0006090000000010000002020FC20200000B2
:1021C0000001000000000000000000080600000000
:1021D000002020202020000000000000000000005F
:1021E0000000000002000000000080601C020004EB
:1021F0000300000000F8040404F8000102020201D8
:10220000000008FC000000000203020000188444E3
:1022100024180003020202020008042424D800014A
:10222000020202010040B088FC80000000000302AE
:10223000003C242424C400010202020100F82424EA
:102240002CC0000102020201000C04E41C04000086
:102250000003000000D8242424D800010202020157
:102260000038444444F8000003020201000000105A
:10227000000000000002000000000020000000003C
:102280000006000000002050880402000000000149
:102290000290909090900000000000000000020466
:1022A0008850200002010000001804C42418000017
:1022B0000002000000F804E494F8000102020202A7
:1022C0000000E09CF0800002030000030204FC24F4
:1022D00024D800020302020100F80404040C0001E7
:1022E000020202010004FC0404F8000203020201DD
:1022F0000004FC24740C0002030202030004FC240A
:10230000740C00020302000000F0080444CC4000FA
:10231000010202010004FC2020FC0402030000036F
:10232000020404FC0404000202030202000004048C
:10233000FC040406040403000004FC24D00C040282
:10234000030200030204FC04000000020302020274
:1023500003FC3CC03CFC0003000300030004FC3011
:10236000C4FC04020302000300F8040404F80001A2
:10237000020202010004FC242418000203020000EF
:1023800000F8848404F80001020207050004FC241C
:10239000649800020302000302182424448C000302
:1023A00002020201000C04FC040C00000203020003
:1023B0000004FC0000FC04000102020100047C8017
:1023C000E01C040000030000001CE03CE01C0000D6
:1023D0000300030000049C609C040002030003024D
:1023E00000041CE01C04000002030200000C8464D2
:1023F0001C04000203020203000000FE02020000AF
:102400000007040400000E30C000000000000102BC
:1024100000000202FE0000000404070000000402A5
:1024200004000000000000000000000000000008A0
:102430000808080808000002000000000000000072
:10244000000040A0A0C00000010202030204FC2022
:1024500020C00000030202010000C0202060000034
:10246000010202020000C02024FC0000010202035D
:102470000200C0A0A0C0000001020202000020F87B
:102480002424040002030202000040A0A0602000F7
:10249000070A0A0A0404FC2020C000020302000309
:1024A000020020E4000000000203020000000020FF
:1024B000E4000008080807000004FC80E020200277
:1024C00003020003020404FC0000000202030202F3
:1024D00000E020E020C00003000300030020E02013
:1024E00020C00002030200030200C02020C0000040
:1024F000010202010020E02020C000080F0A0201B2
:102500000000C02020E0000001020A0F0820E04087
:102510002020000203020000000060A0A0200000B4
:1025200002020203000020F8200000000001020265
:102530000020E00020E00000010202030220E02071
:102540008060200000030100006080E080600000E7
:1025500003000300002060806020000203000302EB
:102560000020E0208060200808070100000020A073
:10257000602000000203020200000020DE020000D2
:102580000000070400000000FF00000000000F0032
:10259000000002DE2000000004070000000201022B
:1025A0000404020000000000000000000000000021
:1025B000000000000000000000000000F800000023
:1025C00000000000333000000000100C06100C0664
:1025D00000000000000000000040C07840C07840CB
:1025E00000043F04043F040400007088FC0830002D
:1025F00000001820FF211E0000F008F000E0180085
:102600000000211C031E211E0000F008887000003D
:10261000001E2123241927211010160E000000008F
:10262000000000000000000000000000E0180402AC
:1026300000000000071820400000020418E000001D
:10264000000040201807000000404080F08040401B
:10265000000202010F01020200000000F000000071
:10266000000101011F010101000000000000000045
:102670000080B070000000000000000000000000BA
:102680000000010101010101010000000000000043
:1026900000003030000000000000000000806018E2
:1026A00004006018060100000000E010080810E0B7
:1026B00000000F102020100F00001010F800000084
:1026C000000020203F2020000000700808088870CB
:1026D000000030282422213000003008888848304B
:1026E000000018202020110E000000C02010F8006B
:1026F0000000070424243F240000F8088888080804
:10270000000019212020110E0000E0108888180018
:1027100000000F112020110E0000380808C83808EA
:10272000000000003F00000000007088080888706A
:1027300000001C222121221C0000E010080810E0EB
:10274000000000312222110F00000000C0C0000074
:102750000000000030300000000000008000000099
:102760000000008060000000000000804020100891
:10277000000001020408102000404040404040405A
:102780000004040404040404000008102040800035
:10279000000020100804020100007048080808F03A
:1027A000000000003036010000C030C828E810E00A
:1027B000000718272423140B000000C038E0000095
:1027C00000203C23020227382008F88888887000FF
:1027D00000203F202020110E00C0300808080838D3
:1027E00000071820202010080008F808080810E04A
:1027F00000203F202020100F0008F88888E80810EB
:1028000000203F20202320180008F88888E80810BE
:1028100000203F200003000000C0300808083800F6
:102820000007182020221E020008F808000008F8FF
:1028300008203F210101213F20000808F808080076
:10284000000020203F2020000000000808F80808B1
:1028500000C08080807F00000008F888C028180829
:1028600000203F20012638200008F8080000000062
:1028700000203F20202020300008F8F800F8F80859
:1028800000203F003F003F200008F830C00008F85B
:1028900008203F200007183F00E01008080810E05B
:1028A000000F10202020100F0008F808080808F07A
:1028B00000203F210101010000E01008080810E09D
:1028C000000F18242438504F0008F8888888887032
:1028D00000203F2000030C302000708808080838D2
:1028E000000038202121221C00180808F8080818C8
:1028F000000000203F2000000008F808000008F851
:1029000008001F202020201F000878880000C838F9
:1029100008000007380E010000F80800F80008F869
:1029200000033C0700073C03000818688080681813
:102930000820302C03032C30200838C800C8380881
:10294000000000203F2000000010080808C83808D8
:10295000002038262120201800000000FE0202027C
:10296000000000007F40404000000C30C00000002C
:1029700000000000010638C00000020202FE000054
:1029800000004040407F00000000000402020204FA
:102990000000000000000000000000000000000037
:1029A000008080808080808080000202040000001F
:1029B0000000000000000000000000808080800017
:1029C000000019242222223F2008F8008080000005
:1029D00000003F112020110E0000000080808000C8
:1029E00000000E112020201100000000808088F8D7
:1029F00000000E112020103F200000808080800009
:102A000000001F222222221300008080F088888884
:102A1000180020203F20200000000080808080805F
:102A200000006B94949493600008F800808080000C
:102A300000203F210000203F2000809898000000E7
:102A4000000020203F202000000000008098980017
:102A50000000C08080807F000008F8000080808037
:102A600000203F24022D302000000808F80000005C
:102A7000000020203F202000008080808080808017
:102A800000203F20003F20003F80800080808000A9
:102A900000203F210000203F200000808080800037
:102AA00000001F202020201F008080008080000068
:102AB0000080FFA12020110E000000008080808097
:102AC00000000E112020A0FF808080800080808088
:102AD0000020203F212000010000008080808080B5
:102AE000000033242424241900008080E08080002A
:102AF000000000001F202000008080000000808077
:102B000000001F202020103F208080800000808057
:102B10008000010E30080601008080008000808067
:102B2000800F300C030C300F00008080008080800C
:102B3000000020312E0E3120008080800000808037
:102B40008080818E701806010000808080808080E7
:102B5000000021302C2221300000000000807C0287
:102B60000200000000003F404000000000FF0000A5
:102B70000000000000FF0000000002027C80000056
:102B8000000040403F000000000006010102020476
:102B90000400000000000000000000000000000031
:102BA0000000000000000000000000000000000025
:102BB0000000000000000000000000000000000015
:102BC0000000F0F0F0000000000000000000017FB5
:102BD000010000000000000000001C1C1C000000A0
:102BE0000000008060301C8C60301C0C0000000075
:102BF00000000000000000000000000000000000D5
:102C00000000000000000000E00000000000E00004
:102C1000000086E69F86868686E69F860000011F66
:102C200001010101011F010100000080C06020F8C6
:102C300020E0C00000000003070C18FF70E18100D5
:102C4000000000070F10107F100F070000806020A9
:102C50006080000000E02000000F3020309F70DC1A
:102C6000371030C0000000100E03000718101807BE
:102C7000000000C02020E0C0000000000080E01F35
:102C800038E88703C43C040000070F1810100B0736
:102C90000D1010080000808C4C380000000000006F
:102CA0000000000000000000000000000000000024
:102CB0000000000000000000000000000000008094
:102CC000E0300804000000000000FEFF01000000EA
:102CD00000000000000000030F182040000004085E
:102CE00030E0800000000000000000000001FFFE56
:102CF0000000000000004020180F0300000000004A
:102D000000000000000000C000000000000042665B
:102D1000663C18FF183C6666420000000000000395
:102D20000000000000000000000000800000000023
:102D300000001010101010FF1010101010000000F4
:102D40000000000300000000000000000000000080
:102D50000000000000000000000000000000000073
:102D60000000808C4C3800000000000000000000D3
:102D700000000000000000000000101010101010F3
:102D80001010101000000000000000000000000003
:102D90000000000000000000000000000000000033
:102DA00000000000000000000000001C1C1C0000CF
:102DB00000000000000000000000000000E0380CEF
:102DC000000000000080701C03000000000060385C
:102DD0000E0100000000000000000080C060202004
:102DE00060C080000000FEFF010000000001FFFE47
:102DF000000001070E181010180E070100000080D7
:102E00008080C0E000000000000000000000FFFF24
:102E1000000000000000001010101F1F1010100014
:102E2000000080402020202060C0800000000303BC
:102E300000804020381F070000001C1A19181818BD
:102E400018181F00000080C020202060C0800000F3
:102E500000000303001010182FE780000000070F88
:102E600010101010180F070000000000000000C034
:102E7000E0F000000000C0B088868180FFFF808005
:102E800000000000000010101F1F1010000000E0E4
:102E900060606060606060000000003F100808082B
:102EA00018F0E0000000070B101010101C0F0300BA
:102EB00000000080C040202020E0C0000000FCFF97
:102EC000211008080818F0E0000001070C18101085
:102ED00010080F03000000C0E06060606060E06008
:102EE00000000003000000E01807000000000000E0
:102EF00000001F1F00000000000080C06020202094
:102F00002060C080000087EF2C1818303068CF8315
:102F10000000070F0810101010180F07000000C065
:102F2000C020202020C0800000001F3F60404040A3
:102F30002010FFFE0000000C1C101010080F0300F2
:102F40000000000000000000000000000000000081
:102F500000000E0E0E0000000000000000001C1C0F
:102F60001C00000000000000000000000000000045
:102F70000000000000000C0C000000000000000039
:102F800000005838000000000000000000000000B1
:102F90008040201000000010284482010000000042
:102FA0000000000000000001020408100000000002
:102FB00000000000000000000000848484848484F9
:102FC00084848484000000000000000000000000F1
:102FD0000000001020408000000000000000000001
:102FE00000000001824428100000001008040201C3
:102FF000000000000000C020201010101030E0C0C1
:10300000000003030000F010080C0703000000009C
:10301000001C1C1C0000000000000000C0406020DC
:10302000202040C00000FCFF01F00E03C1FE038021
:103030007F0001070E0811111011090402000000A1
:103040000080E0E000000000000000807C4340477A
:103050007FF880000010181F1000000000131F1CD4
:103060001020E0E02020202060C080000000FFFF52
:1030700010101010182FE78000101F1F10101010D4
:1030800010180F0700000080C0402020202060E0C2
:103090000000FCFF0100000000000001000001072B
:1030A0000E181010100804030020E0E0202020205B
:1030B00040C080000000FFFF000000000001FFFE94
:1030C00000101F1F10101018080E07010020E0E06C
:1030D00020202020202060800000FFFF1010101012
:1030E0007C00000000101F1F101010101010180698
:1030F0000020E0E020202020206060800000FFFF12
:10310000101010107C00000100101F1F10000000A4
:103110000000000000000080C06020202040E0008F
:103120000000FCFF0100004040C0C140400001071A
:103130000E181010100F0F000020E0E0200000001B
:103140000020E0E02000FFFF101010101010FFFF23
:1031500000101F1F1000000000101F1F1000002093
:103160002020E0E020202000000000000000FFFF01
:10317000000000000000001010101F1F10101000B1
:103180000000000000202020E0E0202020000000BF
:1031900000000000FFFF0000000060E0808080C0B1
:1031A0007F3F00000020E0E020000020A060202001
:1031B0000000FFFF30187CE3C000000000101F1F5C
:1031C00010000001131F1C181020E0E02000000078
:1031D000000000000000FFFF0000000000000000F1
:1031E00000101F1F10101010101018060020E0E033
:1031F000E000000000E0E0E02000FF013FFEC0E052
:103200001E01FFFF00101F1000031F0300101F1FEF
:103210001020E0E0C0000000000020E02000FF00DF
:1032200003071C78E08000FF00101F100000000062
:1032300000030F1F00000080C060202060C08000DD
:103240000000FEFF010000000000FFFE000001077B
:103250000E181010180C07010020E0E0202020209C
:103260002060C0800000FFFF2020202020301F0FA2
:1032700000101F1F10000000000000000000008070
:10328000C060202060C080000000FEFF0100000040
:103290000000FFFE000001070E1111133C7C6721A6
:1032A0000020E0E0202020202060C0800000FFFF00
:1032B000101030F0D0080F0700101F1F1000000082
:1032C000030F1C10100080C060202020204040E030
:1032D0000000070F0C1818303060E08100001F0C50
:1032E0000810101010180F07008060202020E0E068
:1032F00020202060800100000000FFFF000000008F
:103300000100000000101F1F100000000020E0E07E
:1033100020000000000020E02000FFFF000000006F
:10332000000000FF0000070F181010101010080711
:10333000002060E0E02000000020E06020000007A6
:103340007FF88000807C03000000000000071F1C45
:10335000070000000020E0E02000E0E0200020E086
:10336000200007FFF8E01FFFFCE01F000000000343
:103370001F0300011F03000000002060E0A0000008
:1033800020E0602000000000038F7CF8C6010000F0
:10339000000010181E130001171F1810002060E015
:1033A000E02000000020E06020000001073EF8E07F
:1033B000180700000000000010101F1F1010000070
:1033C0000000806020202020A0E0E020000000001D
:1033D00000C0F03E0F0300000000101C1F1710106B
:1033E00010101806000000000000FC04040404048F
:1033F000000000000000FF000000000000000000CE
:1034000000007F404040404000000010E00000000D
:10341000000000000000000000031C6080000000AD
:103420000000000000000000030C70800000000499
:1034300004040404FC000000000000000000000080
:10344000FF00000000000040404040407F000000BE
:103450000000000010080C040C0810000000000020
:10346000000000000000000000000000000000005C
:10347000000000000000000000000000000000004C
:1034800000000000000000000000000000808080BC
:103490008080808080808080800000000404080894
:1034A000000000000000000000000000000000001C
:1034B000000000000000000000000000000000000C
:1034C000000000000000000000000098D8446424C0
:1034D00024FCF80000000F1F18101010081F1F1008
:1034E000180020E0F000000000000000000000FFD5
:1034F000FF180804040CF8F00000001F0F1810104B
:1035000010180F0300000000000000000000000081
:103510000000E0F8180404043C3800000000030F29
:103520000C10101010080600000000000000000041
:1035300020E0F0000000E0F81C04040408FFFF0095
:103540000000030F18101010081F0F0800000000E3
:103550000000000000000000000000E0F8484444C3
:10356000444C7870000000030F0C18101010080471
:10357000000000000080C0602020E0C000000404C3
:1035800004FFFF040404040000000010101F1F10BB
:10359000101000000000000000000000000000000B
:1035A00000000070F88C04048CF874040C00707631
:1035B000CF8D8D8D89C87870000020E0F00000006C
:1035C00000000000000000FFFF08040404FCF800F5
:1035D0000000101F1F100000101F1F10000000002F
:1035E0000000606000000000000000040404FCFC17
:1035F000000000000000001010101F1F101010002D
:1036000000000000000000006060000000000000FA
:1036100000040404FCFC0000000000C0C08080C066
:103620007F3F0000000020E0F000000000000000EC
:10363000000000FFFF80C0F41C0404000000101F05
:103640001F1100031F1C1010000000202020E0F0BC
:1036500000000000000000000000FFFF000000006C
:103660000000001010101F1F1010100000000000BC
:1036700000000000000000000004FCFC0804FCFC4A
:103680000804FCFC00101F1F10001F1F10001F1F4C
:10369000100000000000000000000000000004FC1A
:1036A000FC08080404FCF8000000101F1F100000B4
:1036B000101F1F10000000000000000000000000AC
:1036C0000000E0F0180C04040C18F0E00000030FF8
:1036D0000C101010100C0F03000000000000000080
:1036E00000000000000004FCFC080404040CF8F0D6
:1036F000000080FFFF889010101C0F0300000000E6
:1037000000000000000000000000E0F81C040404B9
:1037100008F8FC000000030F1810109088FFFF80CD
:10372000000000000000000000000000000404048D
:10373000FCFC100804040C0C001010101F1F1010CB
:103740001000000000000000000000000000000069
:103750000000003078CCC48484840C1C0000001E5F
:103760001810101011190F06000000000000C00012
:10377000000000000000040404FFFF040404000033
:1037800000000000000F1F1010100C0000000000CF
:103790000000000000000000000004FCFE0000002B
:1037A00004FCFE000000000F1F181010081F0F0877
:1037B0000000000000000000000000000000040CF9
:1037C0003CFCC40000C43C0C0400000000010F1EBF
:1037D0000E010000000000000000000000000000DA
:1037E00000043CFCC400E47CFC84807C04000007F2
:1037F0001F070000071F0700000000000000000076
:1038000000000000000004041C7CE4C0341C04041C
:10381000000010101C1601131F1C181000000000DF
:1038200000000000000000000000040C3CFCC4008C
:10383000C43C0404000000C080C1370E0100000039
:103840000000000000000000000000000000001C5C
:103850000404C4F47C1C0400000000101C1F171199
:103860001010180E0000000000000000F80C04000A
:103870000000000000001028EF0000000000000021
:10388000000000003F60400000000000000000FF5A
:103890000000000000000000000000FF0000000029
:1038A00000000000000000FF000000000000000415
:1038B0000CF80000000000000000000000EF2810DD
:1038C0000000000000000040603F00000000000019
:1038D0000000180602020408102020300800000032
:1038E00000000000000000000000000000000000D8
:1038F00000000000000000F010101010FF10101069
:1039000010F000000000000F04040404FF0404048D
:10391000040F0000004040405F5555557555555502
:103920005F404040000040200F094989790909099A
:103930000F2040000000FE02424ACA4A4ACA4A4AD0
:103940004202FE000000FF40504C4340404F5050A8
:103950005C40FF00000000F888888888FF8888881D
:1039600088F800000000001F080808087F88888881
:10397000889F80F00080828282828282E2A2928A84
:103980008682808000000000000040807F000000F0
:103990000000000000101010FF109008888888FFB9
:1039A00088888808000444827F01808040432C106E
:1039B00028468180000010101010D030FF30D01247
:1039C0001C1010000010080402010000FF0000019C
:1039D000020408100004040484E43C272424242462
:1039E000E40404040004020100FF090909094989EB
:1039F0007F0000000000FE225A8600FE9292929202
:103A000092FE00000000FF04080700FF4020030CA6
:103A10001422414000008040201806800007182032
:103A2000408000000001002070282621202024383A
:103A30006000010100001012929292929292121272
:103A400002FE0000000000003F101010103F004078
:103A5000807F000000000000C08080808080808027
:103A6000FC84808080808080C0C000000000000056
:103A7000FF7F404040404040FF4040404040404089
:103A8000FF7F0000000000000000000000000000B8
:103A90007F70000000000000000000000000000037
:103AA000000000000000000000000000FCF8000022
:103AB0000000000000000000000000000000000006
:103AC00000FFFE020202020202020202FFFF0202E5
:103AD00002020202020202FF0300000000000000D6
:103AE000001F1F040404040404040404FFFF04046E
:103AF000040404040404041F00000000000000008B
:103B00000000000000000000000000007F3F0000F7
:103B100000000000000000000000000000000000A5
:103B20000000000000000000000000000000000095
:103B300000000000000000000000F8F8F0F0702025
:103B40000000000000000000000000000000000075
:103B50000000000000000000000000000000000065
:103B600000000000008000000000000000000000D5
:103B700000000000000000000000FFFFFFFF000049
:103B80000000000000000000000000000000000035
:103B90000080800000000000000000000000000025
:103BA000000000000000FFFFFE06060606060606EF
:103BB00006060606060606060606FFFFFFFF0606C1
:103BC0000606060606060606060606060606060695
:103BD000FFFFFFFF070200000000000000000000E0
:103BE000000000000000FFFFFF00000000000000D8
:103BF00000000000000000000000FFFFFFFF0000C9
:103C000000000000000000000000000000000000B4
:103C1000FFFFFFFF000000000000000000000000A8
:103C2000000000000000FFFFFF18181818181818EF
:103C300018181818181818181818FFFFFFFF181868
:103C400018181818181818181818181818181818F4
:103C5000FFFFFFFF00000000000000000000000068
:103C60000000000000020101000000000000000050
:103C700000000000000000000000FFFFFFFF000048
:103C80000000000000000000000000000000000034
:103C90000101000000000000000000000000000022
:103CA0000000000000000000000000000000000014
:103CB00000000000000000000000FFFFFFFF000008
:103CC00000000000000000000000000000000000F4
:103CD00000000000000000000000000000000000E4
:103CE00000000000000000000000000000000000D4
:103CF000000000000000000000001F1F0F0F000068
:103D000000000000000000000000000000000000B3
:103D100000000000000000000000000000000000A3
:103D2000403D00080000002088010000500100080C
:103D3000F03D000888010020E0050000E81C0008B4
:103D40002EFF0F070301012A79013AF901391049C1
:103D50000169102A191B1CE101E1066B79091D8616
:103D600003070FFFFF600B80C0F0F8FE7F3F0F07D7
:103D70000125C0E0E0E02AFF01511A032C19015A85
:103D80000F1F713DFFFFC040018B5E5F013911299C
:103D9000093A5E164A4F223912491C79011AC0515C
:103DA0008B07F201BC0202020D990E6BF2E2106960
:103DB000177B0202C089A7390B3A7C01690E312AB0
:103DC000C301991E79302809FFFFF0E0C08080BF51
:103DD000013A8001290A3ABE01690E2CBCBCBC071D
:103DE0006A9F105907500ABF80C0E0F0FF68FF1FAC
:04000005080000F5FA
:00000001FF
