:0300000002104BA0
:0C104B00787FE4F6D8FD75811A020A9542
:1008FB00323031382F303500544558540041534372
:10090B0049493A00434F44453A00FF0F07030101A1
:10091B000101017979797979F9F9F9F9F9F9010194
:10092B00010101010101010101F9F9F9F9F90101D4
:10093B00011979F9F9F9E101E1F9F9F979090101FC
:10094B0001010101010103070FFFFF00000000007F
:10095B0000000080C0F0F8FE7F3F0F070100000091
:10096B00000000C0E0E0E00000FFFFFFFFFF000021
:10097B00000000030FFFFFFFFFFF0F01000000004F
:10098B00000000000000000000FFFFC0404040409E
:10099B0040405E5F5F5F5F5F5F5F5F5F5F5F4040D9
:1009AB004040405F5F5F5F5E5E5F5F5F5F4F4040F9
:1009BB0040404040405F5F5F5F5F40404040404091
:1009CB004040404040404040C0FFFF0F07F2F2F272
:1009DB00F2F2F2F2F2F2F2F2020202F2F2F2F2F2BC
:1009EB00F2F2F2F2F202020202F2F2F2F2F2F2F29C
:1009FB00F2F2F2F2E202020202F2F2F2F20202026C
:100A0B00F2F2F2F2F20202070FFFFF000000000009
:100A1B00FFFFFFFFFF000000000000FFFFFFFF7C58
:100A2B007C7C7C7C7C00000000FFFFFFFF00000053
:100A3B00C3C3C3C3C300000000FFFFFFFF7C7C7C6C
:100A4B00FFFFFFFFFF00000000FFFFF0E0C0808012
:100A5B00BFBFBFBFBF808080808080BFBFBFBFBE16
:100A6B00BEBEBEBEBE80808080BFBFBFBFBCBCBC95
:100A7B00BFBFBFBF9F80808080BFBFBFBF80808054
:0A0A8B00BFBFBFBFBF80C0E0F0FF97
:100A9500750820120CE2E4FF120FF9E4FF120F971C
:100AA500750C30750DFF750E09750F157B40E4FD4E
:100AB500FF120E6D7FF47E01120FDF120F5E750CB3
:100AC50010E4FBFD7F08120DFB750C107B01E4FDA6
:100AD5007F18120DFB750C107B02E4FD7F28120DAB
:100AE500FB750C107B037D02E4FF120DFB750C10EA
:100AF5007B047D027F10120DFB750C107B057D02BA
:100B05007F20120DFB750C107B067D027F30120DC8
:100B1500FB7BFF7A0879FB750E107D047F04120EAE
:100B2500D27FF47E01120FDF120F5E7BFF7A097907
:100B350003750E10E4FD7F10120ED27BFF7A097942
:100B450008750E107D02E4FF120ED27BFF7A09793B
:100B55000F750E107D04E4FF120ED2751610AB084A
:100B65007D027F30120B970508E508D3947E40037C
:100B7500750820E508FB7A00750D03750E107D04D8
:100B85007F28120D717FF47E01120FDF120F5E02B6
:020B95000AA5AF
:100003000000000000000000002F000000000700B7
:10001300070000147F147F1400242A7F2A12006231
:1000230064081323003649552250000005030000DD
:1000330000001C224100000041221C000014083E65
:1000430008140008083E0808000000A0600000082B
:10005300080808080000606000000020100804027F
:10006300003E5149453E0000427F4000004261513D
:100073004946002141454B31001814127F100027D7
:1000830045454539003C4A4949300001710905039A
:1000930000364949493600064949291E00003636CB
:1000A300000000005636000000081422410000142E
:1000B300141414140000412214080002015109060B
:1000C30000324959513E007C1211127C007F49498C
:1000D3004936003E41414122007F4141221C007FBD
:1000E30049494941007F09090901003E4149497ACB
:1000F300007F0808087F0000417F41000020404145
:100103003F01007F08142241007F40404040007FB0
:10011300020C027F007F0408107F003E4141413EF4
:10012300007F09090906003E4151215E007F09193C
:1001330029460046494949310001017F0101003F39
:100143004040403F001F2040201F003F4038403FB9
:10015300006314081463000708700807006151491D
:10016300454300007F41410000552A552A550000B0
:1001730041417F000004020102040040404040402E
:10018300000001020400002054545478007F4844C6
:10019300443800384444442000384444487F0038FD
:1001A3005454541800087E0901020018A4A4A47C26
:1001B300007F080404780000447D400000408084F0
:1001C3007D00007F102844000000417F4000007C38
:1001D30004180478007C0804047800384444443844
:1001E30000FC242424180018242418FC007C080490
:1001F300040800485454542000043F444020003C69
:100203004040207C001C2040201C003C4030403CEF
:10021300004428102844001CA0A0A07C004464547F
:100223004C441414141414140000000000000000C3
:100233000000000000000000000000F800000000C3
:10024300000000333000000000100C06100C060004
:10025300000000000000000040C07840C07840006B
:10026300043F04043F040400007088FC08300000CD
:10027300001820FF211E0000F008F000E018000025
:1002830000211C031E211E0000F0088870000000DE
:100293001E2123241927211010160E000000000030
:1002A3000000000000000000000000E0180402004D
:1002B300000000071820400000020418E0000000BE
:1002C3000040201807000000404080F080404000BC
:1002D3000202010F01020200000000F00000000012
:1002E3000101011F010101000000000000000000E6
:1002F30080B070000000000000000000000000005B
:1003030000010101010101010000000000000000E3
:10031300003030000000000000000000806018047E
:10032300006018060100000000E010080810E0005B
:10033300000F102020100F00001010F80000000024
:100343000020203F2020000000700808088870006B
:1003530000302824222130000030088888483000EB
:100363000018202020110E000000C02010F800000B
:1003730000070424243F240000F8088888080800A4
:100383000019212020110E0000E0108888180000B9
:10039300000F112020110E0000380808C83808008B
:1003A3000000003F0000000000708808088870000B
:1003B300001C222121221C0000E010080810E0008C
:1003C3000000312222110F00000000C0C000000015
:1003D300000000303000000000000080000000003A
:1003E3000000806000000000000080402010080032
:1003F30000010204081020004040404040404000FB
:1004030004040404040404000008102040800000D5
:100413000020100804020100007048080808F000DA
:100423000000003036010000C030C828E810E000AA
:100433000718272423140B000000C038E000000035
:10044300203C23020227382008F88888887000009F
:10045300203F202020110E00C03008080808380073
:10046300071820202010080008F808080810E000EA
:10047300203F202020100F0008F88888E80810008B
:10048300203F20202320180008F88888E80810005F
:10049300203F200003000000C03008080838000097
:1004A30007182020221E020008F808000008F80898
:1004B300203F210101213F20000808F8080800001F
:1004C3000020203F2020000000000808F808080052
:1004D300C08080807F00000008F888C028180800CA
:1004E300203F20012638200008F808000000000003
:1004F300203F20202020300008F8F800F8F80800FA
:10050300203F003F003F200008F830C00008F808F3
:10051300203F200007183F00E01008080810E00003
:100523000F10202020100F0008F808080808F0001A
:10053300203F210101010000E01008080810E0003D
:100543000F18242438504F0008F8888888887000D2
:10055300203F2000030C3020007088080808380072
:100563000038202121221C00180808F80808180068
:100573000000203F2000000008F808000008F808E9
:10058300001F202020201F000878880000C838089A
:10059300000007380E010000F80800F80008F80012
:1005A300033C0700073C03000818688080681808AC
:1005B30020302C03032C30200838C800C83808002A
:1005C3000000203F2000000010080808C838080079
:1005D3002038262120201800000000FE020202001D
:1005E3000000007F40404000000C30C000000000CD
:1005F300000000010638C00000020202FE000000F5
:10060300004040407F00000000000402020204009A
:1006130000000000000000000000000000000000D7
:1006230080808080808080800002020400000000BF
:1006330000000000000000000000808080800000B7
:100643000019242222223F2008F8008080000000A5
:10065300003F112020110E00000000808080000068
:10066300000E112020201100000000808088F80077
:10067300000E112020103F200000808080800000A9
:10068300001F222222221300008080F0888888180D
:100693000020203F20200000000080808080800018
:1006A300006B94949493600008F8008080800000AD
:1006B300203F210000203F20008098980000000088
:1006C3000020203F202000000000008098980000B8
:1006D30000C08080807F000008F8000080808000D8
:1006E300203F24022D302000000808F800000000FD
:1006F3000020203F202000008080808080808000B8
:10070300203F20003F20003F808000808080000049
:10071300203F210000203F200000808080800000D7
:10072300001F202020201F00808000808000000008
:1007330080FFA12020110E00000000808080800037
:10074300000E112020A0FF80808080008080800028
:1007530020203F2120000100000080808080800055
:100763000033242424241900008080E080800000CA
:100773000000001F20200000808000000080800017
:10078300001F202020103F20808080000080808078
:1007930000010E3008060100808000800080808008
:1007A3000F300C030C300F0000808000808080002D
:1007B3000020312E0E312000808080000080808058
:1007C30080818E7018060100008080808080800008
:1007D3000021302C2221300000000000807C020226
:1007E30000000000003F404000000000FF00000048
:1007F30000000000FF0000000002027C80000000F7
:100803000040403F00000000000601010202040412
:1008130000000000000000000000F010101010FFA6
:1008230010101010F000000000000F04040404FF77
:10083300040404040F0000004040405F5555557503
:100843005555555F404040000040200F09498979C4
:100853000909090F2040000000FE02424ACA4A4A21
:10086300CA4A4A4202FE000000FF40504C43404047
:100873004F50505C40FF00000000F888888888FFD4
:1008830088888888F800000000001F080808087F8F
:10089300888888889F80F00080828282828282E2B8
:1008A300A2928A8682808000000000000040807F40
:1008B3000000000000000000101010FF10900888D6
:1008C3008888FF88888808000444827F01808040EC
:1008D300432C1028468180000010101010D030FFE8
:1008E30030D0121C1010000010080402010000FF99
:0808F3000000010204081000DE
:100FDF00EF4E60157D087C07ED1DAA0470011C4AB9
:090FEF0070F6EF1F70EA1E80E7A6
:010FF80022D6
:100FF9008F09EF7006FD7FA6120F2DE509640170B8
:0810090006FD7FA7120F2D2246
:100F97008F09EF700DFD7FC8120F2DE4FD7FA112A1
:100FA7000F2DE5096401700DFD7FC0120F2DE4FDC3
:060FB7007FA0120F2D22A5
:100F1C00F583E5822BF582E5833AF583E493FF7D37
:010F2C0001C3
:100F2D00ED6004D2938002C293C294E4FEEEC394AA
:100F3D0008748094805015C290EF30E704D29180F0
:100F4D0002C291D290EF25E0FF0E80E1D294D293B0
:010F5D002271
:100FBD00AC0774202CFCED24B0FFE4FD120F2DECDA
:100FCD0054F0C4540F4410FF120F2DEC540FFF02B8
:020FDD000F2DD6
:10102900E4FD7F8D120F2D7F14120F2D7FAF020F5C
:011039002D89
:10103A00E4FD7F8D120F2D7F10120F2D7FAE020F50
:01104A002D78
:100F5E00E4FCECC3940674809480502CEC24B0FF17
:100F6E00E4FD120F2DE4FF120F2D7F12120F2DE450
:100F7E00FBEBC3944074809480500A7D01E4FF1211
:080F8E000F2D0B80EC0C80CA52
:010F96002238
:060B97008F138D14A90369
:100B9D00E4F517E516C313F518E4FBFAE51664083A
:100BAD007007F519751A06802CE516131313541FCB
:100BBD00FF7E00E51654077C0060047D0180027DF8
:100BCD0000ED2FFFEC3EFEE516C313FD7C00120C6D
:100BDD007B8E198F1AE924E0F517AD14AF13120FA0
:100BED00BDE4FAFBC3EB951AEA95195053E518FDD0
:100BFD007C00AF03AE02120C8DED4C700FE5166448
:100C0D00086009AD140514AF13120FBDE516640885
:100C1D00701075F006E517A42403F582E5F0340095
:100C2D008014E5166410701875F010E517A4242BC8
:100C3D00F582E5F03402120F1C0BBB00010A80A4F3
:010C4D002284
:041011008F13A9058B
:101015007F017E00AD0119ED6009AD137C00120C56
:031025007B80F1DC
:0110280022A5
:080D71008F098D0A8A0B8B0C1F
:100D7900E4F511F512E50E64087003751102E4F546
:100D89000FE50FC3950D5069C3E50D950F14FD7F50
:100D99000A121011AC0BAD0CCFCDCFCECCCE120CAC
:100DA9008D7C007D0A120C8D8D10E5127025E50DE4
:100DB90014FFE50FC39F501BE5107014E50EC31314
:100DC9002511850FF0A42509FF850E167B208018B3
:100DD900751201E50EC3132511850FF0A42509FF2E
:100DE900E5102430FB850E16AD0A120B97050F800E
:010DF9009069
:010DFA0022D6
:0A0ED2008F098D0A8B0B8A0C890D25
:100EDC00E4F50FAB0BAA0CA90D850F8275830012DC
:100EEC000C4E602BAF0F050F8F82758300120C4ECA
:100EFC00FB850E16AD0AAF09120B97E50E64087050
:0F0F0C000474068004E50EC3132509F50980C49B
:010F1B0022B3
:060DFB008F098D0A8B0B2D
:100E0100E50C131313541FFF7E00E50C54077C00FF
:100E110060047D0180027D00ED2FFFEC3EFEAD0CF4
:100E21007C00120C7B8E0D8F0EE4FBFAC3EB950E4A
:100E3100EA950D5036E50CFD7C00AF03AE02120CB5
:100E41008DED4C7009AD0A050AAF09120FBDE50C15
:100E510064107017E50BC43354E0241BF582E434AD
:0B0E610008120F1C0BBB00010A80C12F
:010E6C002263
:060E6D008F098D0A8B0BBA
:100E7300E4F510F511E50C131313541FFFE50C549F
:100E83000760047E0180027E00EF2EF50CE4F5126C
:100E9300E512C3950C5037E512250AFDAF09120F71
:100EA300BDE4FCECC3950B5021AB0DAA0EA90F05B5
:100EB30011E511AE107002051014F5828E83120C29
:0E0EC3004EFF7D01120F2D0C80D9051280C24A
:010ED10022FE
:100CE200C2927FC87E00120FDFD292E4FD7FAE1265
:100CF2000F2DE4FF120F2D7F12120F2D7F40120FC6
:100D02002D7FB0120F2D7F81120F2D7FFF120F2D1D
:100D12007FA1120F2D7FA6120F2D7FA8120F2D7FFC
:100D22002F120F2D7FC8120F2D7FD3120F2DE4FF2C
:100D3200120F2D7FD5120F2D7F80120F2D7FD9120A
:100D42000F2D7F21120F2D7FDA120F2D7F12120F1E
:100D52002D7FDB120F2D7F40120F2D7F8D120F2D55
:0F0D62007F14120F2D120F5EE4FD7FAF020F2DD5
:100C4E00BB010CE58229F582E5833AF583E022505B
:100C5E0006E92582F8E622BBFE06E92582F8E222A5
:0D0C6E00E58229F582E5833AF583E49322BF
:100C7B00EF8DF0A4A8F0CF8CF0A428CE8DF0A42E8D
:020C8B00FE2247
:100C8D00BC000BBE0029EF8DF084FFADF022E4CC4B
:100C9D00F875F008EF2FFFEE33FEEC33FCEE9DEC14
:100CAD00984005FCEE9DFE0FD5F0E9E4CEFD22ED5A
:100CBD00F8F5F0EE8420D21CFEADF075F008EF2FA4
:100CCD00FFED33FD4007985006D5F0F222C398FD95
:050CDD000FD5F0EA2232
:00000001FF
