:030000000210DB10
:0C10DB00787FE4F6D8FD75811C020A95B0
:1008FB00323031382F303500544558540041534372
:10090B0049493A00434F44453A00FF0F07030101A1
:10091B000101017979797979F9F9F9F9F9F9010194
:10092B00010101010101010101F9F9F9F9F90101D4
:10093B00011979F9F9F9E101E1F9F9F979090101FC
:10094B0001010101010103070FFFFF00000000007F
:10095B0000000080C0F0F8FE7F3F0F070100000091
:10096B00000000C0E0E0E00000FFFFFFFFFF000021
:10097B00000000030FFFFFFFFFFF0F01000000004F
:10098B00000000000000000000FFFFC0404040409E
:10099B0040405E5F5F5F5F5F5F5F5F5F5F5F4040D9
:1009AB004040405F5F5F5F5E5E5F5F5F5F4F4040F9
:1009BB0040404040405F5F5F5F5F40404040404091
:1009CB004040404040404040C0FFFF0F07F2F2F272
:1009DB00F2F2F2F2F2F2F2F2020202F2F2F2F2F2BC
:1009EB00F2F2F2F2F202020202F2F2F2F2F2F2F29C
:1009FB00F2F2F2F2E202020202F2F2F2F20202026C
:100A0B00F2F2F2F2F20202070FFFFF000000000009
:100A1B00FFFFFFFFFF000000000000FFFFFFFF7C58
:100A2B007C7C7C7C7C00000000FFFFFFFF00000053
:100A3B00C3C3C3C3C300000000FFFFFFFF7C7C7C6C
:100A4B00FFFFFFFFFF00000000FFFFF0E0C0808012
:100A5B00BFBFBFBFBF808080808080BFBFBFBFBE16
:100A6B00BEBEBEBEBE80808080BFBFBFBFBCBCBC95
:100A7B00BFBFBFBF9F80808080BFBFBFBF80808054
:0A0A8B00BFBFBFBFBF80C0E0F0FF97
:100A9500750820120C66E4FF121063E4FF120FFDC7
:100AA500750C30750DFF750E09750F157B40E4FD4E
:100AB500FF120EB77FF47E01121049120F9F750CBD
:100AC50010E4FBFD7F08120DA1750C107B01E4FD00
:100AD5007F18120DA1750C107B02E4FD7F28120D05
:100AE500A1750C107B037D02E4FF120DA1750C109E
:100AF5007B047D027F10120DA1750C107B057D0214
:100B05007F20120DA1750C107B067D027F30120D22
:100B1500A17BFF7A0879FB750E107D047F04120F07
:100B25001F7FF47E01121049120F9F7BFF7A09790E
:100B350003750E10E4FD7F10120F1F7BFF7A0979F4
:100B450008750E107D02E4FF120F1F7BFF7A0979ED
:100B55000F750E107D04E4FF120F1F751610AB08FC
:100B65007D027F30120B970508E508D3947E40037C
:100B7500750820E508FB7A00750D03750E107D04D8
:100B85007F28120E2D7FF47E01121049120F9F024D
:020B95000AA5AF
:100003000000000000000000002F000000000700B7
:10001300070000147F147F1400242A7F2A12006231
:1000230064081323003649552250000005030000DD
:1000330000001C224100000041221C000014083E65
:1000430008140008083E0808000000A0600000082B
:10005300080808080000606000000020100804027F
:10006300003E5149453E0000427F4000004261513D
:100073004946002141454B31001814127F100027D7
:1000830045454539003C4A4949300001710905039A
:1000930000364949493600064949291E00003636CB
:1000A300000000005636000000081422410000142E
:1000B300141414140000412214080002015109060B
:1000C30000324959513E007C1211127C007F49498C
:1000D3004936003E41414122007F4141221C007FBD
:1000E30049494941007F09090901003E4149497ACB
:1000F300007F0808087F0000417F41000020404145
:100103003F01007F08142241007F40404040007FB0
:10011300020C027F007F0408107F003E4141413EF4
:10012300007F09090906003E4151215E007F09193C
:1001330029460046494949310001017F0101003F39
:100143004040403F001F2040201F003F4038403FB9
:10015300006314081463000708700807006151491D
:10016300454300007F41410000552A552A550000B0
:1001730041417F000004020102040040404040402E
:10018300000001020400002054545478007F4844C6
:10019300443800384444442000384444487F0038FD
:1001A3005454541800087E0901020018A4A4A47C26
:1001B300007F080404780000447D400000408084F0
:1001C3007D00007F102844000000417F4000007C38
:1001D30004180478007C0804047800384444443844
:1001E30000FC242424180018242418FC007C080490
:1001F300040800485454542000043F444020003C69
:100203004040207C001C2040201C003C4030403CEF
:10021300004428102844001CA0A0A07C004464547F
:100223004C441414141414140000000000000000C3
:100233000000000000000000000000F800000000C3
:10024300000000333000000000100C06100C060004
:10025300000000000000000040C07840C07840006B
:10026300043F04043F040400007088FC08300000CD
:10027300001820FF211E0000F008F000E018000025
:1002830000211C031E211E0000F0088870000000DE
:100293001E2123241927211010160E000000000030
:1002A3000000000000000000000000E0180402004D
:1002B300000000071820400000020418E0000000BE
:1002C3000040201807000000404080F080404000BC
:1002D3000202010F01020200000000F00000000012
:1002E3000101011F010101000000000000000000E6
:1002F30080B070000000000000000000000000005B
:1003030000010101010101010000000000000000E3
:10031300003030000000000000000000806018047E
:10032300006018060100000000E010080810E0005B
:10033300000F102020100F00001010F80000000024
:100343000020203F2020000000700808088870006B
:1003530000302824222130000030088888483000EB
:100363000018202020110E000000C02010F800000B
:1003730000070424243F240000F8088888080800A4
:100383000019212020110E0000E0108888180000B9
:10039300000F112020110E0000380808C83808008B
:1003A3000000003F0000000000708808088870000B
:1003B300001C222121221C0000E010080810E0008C
:1003C3000000312222110F00000000C0C000000015
:1003D300000000303000000000000080000000003A
:1003E3000000806000000000000080402010080032
:1003F30000010204081020004040404040404000FB
:1004030004040404040404000008102040800000D5
:100413000020100804020100007048080808F000DA
:100423000000003036010000C030C828E810E000AA
:100433000718272423140B000000C038E000000035
:10044300203C23020227382008F88888887000009F
:10045300203F202020110E00C03008080808380073
:10046300071820202010080008F808080810E000EA
:10047300203F202020100F0008F88888E80810008B
:10048300203F20202320180008F88888E80810005F
:10049300203F200003000000C03008080838000097
:1004A30007182020221E020008F808000008F80898
:1004B300203F210101213F20000808F8080800001F
:1004C3000020203F2020000000000808F808080052
:1004D300C08080807F00000008F888C028180800CA
:1004E300203F20012638200008F808000000000003
:1004F300203F20202020300008F8F800F8F80800FA
:10050300203F003F003F200008F830C00008F808F3
:10051300203F200007183F00E01008080810E00003
:100523000F10202020100F0008F808080808F0001A
:10053300203F210101010000E01008080810E0003D
:100543000F18242438504F0008F8888888887000D2
:10055300203F2000030C3020007088080808380072
:100563000038202121221C00180808F80808180068
:100573000000203F2000000008F808000008F808E9
:10058300001F202020201F000878880000C838089A
:10059300000007380E010000F80800F80008F80012
:1005A300033C0700073C03000818688080681808AC
:1005B30020302C03032C30200838C800C83808002A
:1005C3000000203F2000000010080808C838080079
:1005D3002038262120201800000000FE020202001D
:1005E3000000007F40404000000C30C000000000CD
:1005F300000000010638C00000020202FE000000F5
:10060300004040407F00000000000402020204009A
:1006130000000000000000000000000000000000D7
:1006230080808080808080800002020400000000BF
:1006330000000000000000000000808080800000B7
:100643000019242222223F2008F8008080000000A5
:10065300003F112020110E00000000808080000068
:10066300000E112020201100000000808088F80077
:10067300000E112020103F200000808080800000A9
:10068300001F222222221300008080F0888888180D
:100693000020203F20200000000080808080800018
:1006A300006B94949493600008F8008080800000AD
:1006B300203F210000203F20008098980000000088
:1006C3000020203F202000000000008098980000B8
:1006D30000C08080807F000008F8000080808000D8
:1006E300203F24022D302000000808F800000000FD
:1006F3000020203F202000008080808080808000B8
:10070300203F20003F20003F808000808080000049
:10071300203F210000203F200000808080800000D7
:10072300001F202020201F00808000808000000008
:1007330080FFA12020110E00000000808080800037
:10074300000E112020A0FF80808080008080800028
:1007530020203F2120000100000080808080800055
:100763000033242424241900008080E080800000CA
:100773000000001F20200000808000000080800017
:10078300001F202020103F20808080000080808078
:1007930000010E3008060100808000800080808008
:1007A3000F300C030C300F0000808000808080002D
:1007B3000020312E0E312000808080000080808058
:1007C30080818E7018060100008080808080800008
:1007D3000021302C2221300000000000807C020226
:1007E30000000000003F404000000000FF00000048
:1007F30000000000FF0000000002027C80000000F7
:100803000040403F00000000000601010202040412
:1008130000000000000000000000F010101010FFA6
:1008230010101010F000000000000F04040404FF77
:10083300040404040F0000004040405F5555557503
:100843005555555F404040000040200F09498979C4
:100853000909090F2040000000FE02424ACA4A4A21
:10086300CA4A4A4202FE000000FF40504C43404047
:100873004F50505C40FF00000000F888888888FFD4
:1008830088888888F800000000001F080808087F8F
:10089300888888889F80F00080828282828282E2B8
:1008A300A2928A8682808000000000000040807F40
:1008B3000000000000000000101010FF10900888D6
:1008C3008888FF88888808000444827F01808040EC
:1008D300432C1028468180000010101010D030FFE8
:1008E30030D0121C1010000010080402010000FF99
:0808F3000000010204081000DE
:10104900EF4E60157D087C07ED1DAA0470011C4A4E
:0910590070F6EF1F70EA1E80E73B
:01106200226B
:101063008F09EF7006FD7FA6120F76E50964017004
:0810730006FD7FA7120F762293
:100FFD008F09EF700DFD7FC8120F76E4FD7FA112F2
:10100D000F76E5096401700DFD7FC0120F76E4FDCA
:06101D007FA0120F7622F5
:0810F1007F01AE071FEE70FA4B
:0110F90022D4
:0F10BD00D291D2901210F1C2911210F1C2902272
:0A10E700C291D2901210F1D29122B2
:0F10CC00D2911210F1D2901210F1C2900210F1D5
:020FD100AD076A
:100FD300E4FCECC3940874809480501DC290ED30FF
:100FE300E704D2918002C2911210F1D2901210F153
:090FF300C290ED25E0FD0C80D94F
:010FFC0022D2
:0D0F6900120F76E4FDFF120F76E4FD7F12FB
:100F7600AB05AA071210BD7F78120FD11210CCEB69
:100F860060047F408002E4FF120FD11210CCAF0242
:090F9600120FD11210CC0210E779
:10102300A907742029F9ED24B0FFE4FD120F76E936
:1010330054F0C4540F4410FFE4FD120F76E9540F2B
:06104300FFE4FD020F7640
:10109300E4FD7F8D120F76E4FD7F14120F76E4FDDD
:0510A3007FAF020F7693
:1010A800E4FD7F8D120F76E4FD7F10120F76E4FDCC
:0510B8007FAE020F767F
:100F9F00E4F9E9C39406748094805025E924B0FFE6
:100FAF00E4FD120F69E4F509C3E5099440748094D8
:100FBF0080500B7D01E4FF120F76050980EA09804E
:010FCF00D150
:010FD00022FE
:040B97008F138D1417
:100B9B00E4F517E516C313FDF518E4F519F51AE599
:100BAB001664087007F51B751C068029E5161313D0
:100BBB0013541FFF7E00E51654076005900001805B
:100BCB0003900000E5822FFFE5833EFE7C00120DB3
:100BDB003A8E1B8F1CEB24E0F517AD14AF131210DC
:100BEB0023E4F519F51AC3E51A951CE519951B5065
:100BFB0069E518FD7C00AE19AF1A120D4CED4C7067
:100C0B000FE51664086009AD140514AF1312102319
:100C1B00E5166408701075F006E517A42403F58239
:100C2B00E5F034008014E5166410702E75F010E5B5
:100C3B0017A4242BF582E5F03402F583E582251AFF
:100C4B00F582E5833519F583E493FF7D01120F7669
:0A0C5B00051AE51A70900519808C47
:010C6500226C
:04107B008F13A90521
:10107F007F017E00AD0119ED6009AD137C00120DEB
:03108F003A80F1B3
:01109200223B
:080E2D008F098D0A8A0B8B0C62
:100E3500E4F511F512E50E64087003751102E4F589
:100E45000FE50FC3950D5069C3E50D950F14FD7F93
:100E55000A12107BAC0BAD0CCFCDCFCECCCE120D84
:100E65004C7C007D0A120D4C8D10E5127025E50DA8
:100E750014FFE50FC39F501BE5107014E50EC31357
:100E85002511850FF0A42509FF850E167B208018F6
:100E9500751201E50EC3132511850FF0A42509FF71
:100EA500E5102430FB850E16AD0A120B97050F8051
:010EB50090AC
:010EB6002219
:0A0F1F008F098D0A8B0B8A0C890DD7
:100F2900E4F50FAB0BAA0CA90D850F82758300128E
:100F39000D0D602BAF0F050F8F82758300120D0DFC
:100F4900FB850E16AD0AAF09120B97E50E64087002
:0F0F59000474068004E50EC3132509F50980C44E
:010F68002266
:060DA1008F098D0A8B0B87
:100DA700E50C131313541FFF7E00E50C54077C005A
:100DB70060047D0180027D00ED2FFFEC3EFEAD0C4F
:100DC7007C00120D3A8E0F8F10E4F50DF50EC3E57A
:100DD7000E9510E50D950F504CE50CFD7C00AE0D02
:100DE700AF0E120D4CED4C7009AD0A050AAF091292
:100DF7001023E50C6410702DE50BC43354E0241B5D
:100E0700F582E43408F583E582250EF582E583351E
:100E17000DF583E493FF7D01120F76050EE50E7045
:050E2700AD050D80A9DE
:010E2C0022A3
:060EB7008F098D0A8B0B70
:100EBD00E4F510F511E50C131313541FFFE50C5455
:100ECD000760047E0180027E00EF2EF50CE4F51222
:100EDD00E512C3950C503AE512250AFDAF09121023
:100EED0023E4F513E513C3950B5022AB0DAA0EA900
:100EFD000F0511E511AE107002051014F5828E83E9
:100F0D00120D0DFF7D01120F76051380D70512808E
:010F1D00BF14
:010F1E0022B0
:100C6600C2927FC87E00121049D292E4FD7FAE1276
:100C76000F69E4FD7F40120F76E4FD7FB0120F7618
:100C8600E4FD7F81120F76E4FD7FFF120F76E4FD0F
:100C96007FA1120F76E4FD7FA6120F76E4FD7FA8F2
:100CA600120F76E4FD7F2F120F76E4FD7FC8120F38
:100CB60076E4FD7FD3120F76E4FDFF120F76E4FD96
:100CC6007FD5120F76E4FD7F80120F76E4FD7FD983
:100CD600120F76E4FD7F21120F76E4FD7FDA120F04
:100CE6006FE4FD7FDB120F76E4FD7F40120F76E4A2
:100CF600FD7F8D120F76E4FD7F14120F76120F9F83
:070D0600E4FD7FAF020F7650
:100D0D00BB010CE58229F582E5833AF583E022509B
:100D1D0006E92582F8E622BBFE06E92582F8E222E5
:0D0D2D00E58229F582E5833AF583E49322FF
:100D3A00EF8DF0A4A8F0CF8CF0A428CE8DF0A42ECD
:020D4A00FE2287
:100D4C00BC000BBE0029EF8DF084FFADF022E4CC8B
:100D5C00F875F008EF2FFFEE33FEEC33FCEE9DEC54
:100D6C00984005FCEE9DFE0FD5F0E9E4CEFD22ED9A
:100D7C00F8F5F0EE8420D21CFEADF075F008EF2FE4
:100D8C00FFED33FD4007985006D5F0F222C398FDD5
:050D9C000FD5F0EA2272
:00000001FF
